:020000040800F2
:1000000010110420F1010008C912020851E601088C
:10001000A9F001083BDD0008811103080000000081
:10002000000000000000000000000000B98F02087E
:1000300041420108000000005F020008092E02088A
:100040000B0200080B0200080B0200080B0200085C
:100050000B0200080B0200080B0200080B0200084C
:100060000B0200080B0200080B0200080B0200083C
:100070000B0200080B0200080B0200080B0200082C
:100080000B0200080B0200080B0200089DDD0008AF
:100090007DDD00080B0200080B0200080B020008BF
:1000A0000B0200080B0200080B0200080B020008FC
:1000B0000B0200080B0200080B0200080B020008EC
:1000C0000B0200080B0200080B0200080B020008DC
:1000D0000B020008CDCF0208F1CF020815D00208AC
:1000E0000B0200080B0200080B0200080B020008BC
:1000F0000B0200080B0200080B0200080B020008AC
:100100000B020008217E02080B0200080B02000807
:1001100049C40208BDC402080B0200080B02000813
:100120000B0200080B0200080B0200086F3F0108D9
:100130000B0200080B0200080B020008DDDD0008BE
:10014000BDDD00080B0200080B0200088135020823
:100150000B0200080B0200080B02000839D002084D
:100160000B0200080B0200081DDE0008FDDD000880
:100170000B0200080B020008000000000B02000840
:100180000B0200080B020008ADC5020825C60208D4
:100190000B0200080B020008000000000B02000820
:1001A0000B0200080B020008000000000000000025
:1001B0000B02000800000000000000000B02000815
:1001C0000B0200080B0200080B0200080B020008DB
:1001D0000B0200080B020008DFF810D000F0E6FB6D
:1001E00000480047117B0308AFF300801011042082
:1001F0000648804706480047FEE7FEE7FEE7FEE7C1
:10020000FEE7FEE7FEE7FEE7FEE7FEE721A60208BF
:10021000D9010008EFF3108072B6704780F31088A0
:10022000704726484FF0FF010170002080F30988D5
:100230002348016881F3088822480121017022487F
:100240004FF08051016062B6FEE71F484FF08051C9
:10025000016070471C484FF080510160704772B6D2
:100260002EF01F0E4EF0090EEFF3098050B11EF074
:10027000100F08BF20ED108A203880E8F00F1349D6
:100280000968086000B5124880475DF804EB114822
:1002900011490A7802700D4810490A680260106816
:1002A00090E8F00F20301EF0100F08BFB0EC108A5D
:1002B00080F309884EF0040E62B6704722ED00E02C
:1002C000100000203E00002004ED00E0440000206B
:1002D0001929020833000020340000204C000020BF
:1002E0002DE9F05F0546002092469B46884606466B
:1002F000814640241BE0284641464746224600F0FE
:100300006EFA53465A46C01A914110D31146184608
:10031000224600F016F82D1A67EB01084F462246D8
:100320000120002100F00DF817EB00094E41201EBE
:10033000A4F10104DFDC484631462A464346BDE8C5
:10034000F09F202A04DB203A00FA02F100207047D7
:100350009140C2F1200320FA03F319439040704703
:1003600040EA01039B0703D009E008C9121F08C037
:10037000042AFAD203E011F8013B00F8013B521EB7
:10038000F9D27047D2B201E000F8012B491EFBD22E
:1003900070470022F6E710B513460A460446194690
:1003A000FFF7F0FF204610BD30B505462A460B4644
:1003B00012F8010B13F8014B08B1A042F8D01CB1A0
:1003C000002802D06D1CF1E7284630BD421C10F811
:1003D000011B0029FBD1801A704730B5054600206B
:1003E000034600E05B1C934205D2EC5CC85C201A1B
:1003F00001D1002CF6D130BD70B50F4D00B9286881
:10040000002412E00A4602E09E4203D0521C1378F8
:10041000002BF9D1DAB2224305D02BB124B100214F
:1004200000F8011B04E00446401C0678002EE9D1C8
:100430002860204670BD00008C1F002070B5064665
:1004400035F0DAFF046805460A220021304600F044
:10045000E8F92C6070BD2DE9FE4F804681EA03006B
:10046000C00F0C46009021F0004123F00045B8EB8E
:100470000200A94105D24046214690461C460B4643
:10048000024623F00040104347D0270DC7F30A006F
:10049000C3F30A510290401A019040286BDAC3F36B
:1004A000130040F4801B0098924620B10023D2EB49
:1004B000030A63EB0B0B01985946C0F1400250460A
:1004C000FFF73FFF06460D4650465946019A00F099
:1004D00096F910EB08006141002487EA115284EA82
:1004E000E7731A4340D0009A62B3019A012A4FEA97
:1004F000075215DC001B61EB02014FF0004202EADB
:100500000752CDE90042001C41F5801132462B46CE
:1005100000F0CEF903B0BDE8F08F40462146F9E780
:10052000001B61EB0201001C41F5801300185B41C8
:100530002018A2F5001747EB030140EAD570B61961
:100540006D4111E06D084FEA360645EAC0754FEA85
:100550000752001B61EB0201001C41F580114908A4
:100560004FEA30000019514132462B4603B0BDE836
:10057000F04F00F08EB90098012240000023D0EB2C
:10058000020263EBE073009821464FEAE074B8EB97
:10059000000061EB0401E9E783F000435BE781F0D1
:1005A000004158E72DE9FE4F81EA030404F00044BE
:1005B00021F0004100944FF0000B23F0004350EA7B
:1005C00001045ED052EA03045BD0C3F30A54C1F3C2
:1005D0000A552C44A4F2F3340194A0FB0254C1F355
:1005E000130141F48011C3F3130343F4801301FB9F
:1005F000024400FB034E840A970A44EA815447EA06
:100600008357A4FB076802958D0A05FB07854FEA0F
:10061000932C04FB0C542705029D4FEA065847EA29
:100620001637B5EB08056EEB070C870E920E47EAFE
:10063000811742EA8312A7FB0201B6EB0B0164EBC0
:1006400000042B0D43EA0C335E1844EB1C50DA46D1
:100650005146E7FB0201C5F313044FEA0B3343EAAB
:1006600014534FEA0432019C43EA0603A4F10C043C
:100670000294009CCDE900B400F01AF903B0BDE883
:10068000F08F00200146F9E72DE9F04D81EA0304DF
:1006900004F0004B21F0004514464FF0000A23F00F
:1006A000004150EA050220D054EA01021DD0C5F3F2
:1006B0000A570246C5F31303C1F31300C1F30A56E8
:1006C00040F4801543F48013A7EB0608101BD646B0
:1006D00008F2FD3873EB050002D308F1010801E0D0
:1006E00092185B41B8F1000F03DA00200146BDE823
:1006F000F08D00204FF48011064684460EE0171B53
:1007000073EB050705D3121B63EB050306434CEAA5
:10071000010C49084FEA300092185B4150EA01078A
:10072000EDD152EA030012D082EA040083EA050107
:10073000084305D0101BAB4106D20122002306E07E
:1007400000224FF0004302E06FF0010253101AEB59
:1007500006004CEB085110EB0A0041EB0B01BDE821
:10076000F04D00F096B80EB540F2334102910021F1
:10077000CDE900110A460B4600F09AF803B000BD1F
:10078000C1F30A5210B5C1F3130140F2FF3341F433
:1007900080119A4201DA002010BD40F233439A42A0
:1007A000A2F2334203DC524200F019F810BD90402F
:1007B00010BD30B50B46014600202022012409E07F
:1007C00021FA02F59D4205D303FA02F5491B04FA0A
:1007D00002F52844151EA2F10102F1DC30BD202AE9
:1007E00004DB203A21FA02F00021704721FA02F3DB
:1007F000D040C2F120029140084319467047202A98
:1008000006DBCB17203A41FA02F043EAE07306E038
:1008100041FA02F3D040C2F1200291400843194648
:1008200070472DE9F04791460F4680460446002662
:1008300014F8015B2DB100F0CBF80068405DC007F3
:10084000F6D12B2D02D02D2D18D0641E4A463946E4
:10085000204600F0C1F827B13968A14201D1C7F89C
:10086000008071054FF002040BD54042002803DDE3
:1008700035F0C2FD0460A007BDE8F08746F480664D
:10088000E4E70028F8DA35F0B7FD04606FF00040C7
:10089000F2E710B5141E73F1000408DA401C41F1B0
:1008A000000192185B411A4301D120F0010010BDF4
:1008B0002DE9F04D92469B4611B1B1FA81F202E06A
:1008C000B0FA80F220329046FFF73BFD04460F4617
:1008D00040EA0A0041EA0B0153465A46084313D046
:1008E000114653EA010019D0C8F140025046FFF703
:1008F00076FF05460E46504659464246FFF721FD13
:10090000084305D0012004E020463946BDE8F08DBB
:100910000020054346EAE0762C4337430A986305F6
:10092000E40AA0EB08000022FD0A44EA47540A301A
:1009300002D500200146E9E7010510196941DDE90A
:10094000084500196941BDE8F04DA2E7C1F30A521C
:10095000C1F3130140F2FF3341F480119A4202DAED
:1009600000200146704740F233439A42A2F23342DC
:1009700002DC5242FFF733BFFFF7E3BC30B5041E81
:1009800071F1000404DB4FF00044404264EB0101CC
:10099000141E73F1000405DB1C464FF00043524265
:1009A00063EB0403994208BF904230BD064C074DEB
:1009B00006E0E06840F0010394E80700984710342F
:1009C000AC42F6D3FFF70CFC58910308789103086A
:1009D00000487047548603082DE9F05F824600788E
:1009E000002715468B460AF10104B946302801D08C
:1009F0009DB113E014F8010B0127782803D0582883
:100A000001D045B10AE00DB1102D07D10027102506
:100A100014F8010B02E0082500E00A250026B04684
:100A20000EE005FB080005FB06F1012701EB10466F
:100A30001FFA80F8B6F5803F00D3B94614F8010BD1
:100A4000294600F018F80028EBDABBF1000F05D0BA
:100A50000FB1641E00E05446CBF80040B9F1000F1E
:100A600006D035F0C9FC02210160C81EBDE8F09F28
:100A700048EA0640FAE73A2800D2303820F020024F
:100A8000412A01D3A2F13700884201D34FF0FF3051
:100A9000704770B58C1810F8015B15F0070301D191
:100AA00010F8013B2A1106D110F8012B03E010F8D1
:100AB000016B01F8016B5B1EF9D12B0705D40023F4
:100AC000521E0DD401F8013BFAE710F8013BCB1A96
:100AD000921C03E013F8015B01F8015B521EF9D58B
:100AE000A142D8D3002070BD21B1826842F001023A
:100AF000826003E0826822F0010282607047000099
:100B00000021084A1168084A1140D0E900231A431D
:100B100083681A43C3681A431143044AC2F8041392
:100B20007047000004230140E030FCFF002001403A
:100B300021B1826842F48072826003E0826822F40C
:100B400080728260704721B1826842F400728260D4
:100B500003E0826822F400728260704710B50121C0
:100B6000080224F0F5FD00214FF4807024F0F0FD20
:100B700010BD000030B50246002000235068104C24
:100B800020400D790C6844EA0524204350609068A9
:100B90000C4C2040D1E903542C438D682C434D79F3
:100BA00044EA450420439060D06A20F470000C7D34
:100BB000641EE4B2234340EA0350D06230BD00001B
:100BC000FFFEFFFCFDF7FFC0F0B504460D46002018
:100BD0000021092D11DDE068A5F10A0606EB4607A4
:100BE000072606FA07F18843A5F10A0606EB460632
:100BF00003FA06F10843E0600CE0206905EB4507C5
:100C0000072606FA07F1884305EB450603FA06F1C5
:100C100008432061072A0FDA606B561E06EB860731
:100C20001F2606FA07F18843561E06EB860605FACC
:100C300006F10843606322E00D2A0FDA206BD61F0D
:100C400006EB86071F2606FA07F18843D61F06EB38
:100C5000860605FA06F10843206310E0E06AA2F177
:100C60000D0606EB86071F2606FA07F18843A2F158
:100C70000D0606EB860605FA06F10843E062F0BDB4
:100C8000816841F0804181607047002101600171FD
:100C900041718160C16001610121017570470000EF
:100CA00070B506460B4D002410E0707815F834102E
:100CB000884209D105EBC400406828B105EBC400A7
:100CC00041683046884770BD601CC4B20E2CECD31E
:100CD0000020F8E71C83030870B506460B4D00247E
:100CE00010E0707815F83410884209D105EBC40083
:100CF000406828B105EBC40041683046884770BDA4
:100D0000601CC4B20E2CECD30020F8E78C830308DF
:100D100070B5044626460CB9002070BD0025284653
:100D200017F0ACFD01280CD1012105EB8500C0EBCB
:100D30008510054A02EB4000C1720021284629F0C7
:100D40005BF80120E9E700006884032070B50446E1
:100D500026460CB9002070BD0125284617F08EFDEF
:100D600001280CD1012105EB8500C0EB8510054A57
:100D700002EB4000C1720021284629F03DF8012015
:100D8000E9E70000688403202DE9F047044688461F
:100D900016461F46022C01DBBDE8F087264820F8E6
:100DA000248096FBF7F000F0FF09B72004EB440124
:100DB000224A02F821002D2004EB440102EB8101BC
:100DC000487004EB4400114601EB800004721A489D
:100DD00000EB840004EB440102EB81014860012533
:100DE00013E009FB05F0144901EB8401488004EB92
:100DF0004400124A02EB80011148006821F07EF99C
:100E0000322021F0BFFD681CC5B2BD42E9DB0A48B3
:100E100000EB8400468004EB4400084A02EB8001AA
:100E20000748006821F06AF9642021F0ABFD05A0B5
:100E300035F0A4FA00BFAFE796130020A085032089
:100E4000241E0020506F776572204D6F64656C2002
:100E50005365742041646A7573740D0A00000000C4
:100E60002DE9F05F0546884617464FF000093E4ED3
:100E7000CA46CB4621F07CF9082F01DA384600E05B
:100E80000820024641463948FFF76AFAB8F1000FD8
:100E900000D027B921F08CF90020BDE8F09F21F0A7
:100EA000DDFD8346324890F84600302101EB4000DA
:100EB000C5F3072188420DD02D4890F84600312116
:100EC00001EB4000C5F30721884203D021F070F9FF
:100ED0000020E2E7264890F84600C5F30321B1EB75
:100EE000400F02D14FF0000901E04FF0010905F079
:100EF000F000102803D021F05BF90020CDE725F4A5
:100F00004F4A002429E004EB840056F820005045A5
:100F100021D104EB840006EB80000069D8B104EB1A
:100F2000840006EB80003A4610490369484698471A
:100F300004EB840006EB8000806858B104EB840069
:100F400006EB8000C0F80CB0002004EB840106EB37
:100F50008101486003E0601CC4B2082CD3DB00BFF1
:100F600021F026F9012098E7A41E0020681F002028
:100F7000DC52032070B50026334D21F06FFD33495C
:100F800008600846016832480068323081424ED914
:100F900021F064FD0646002446E005EB041040689D
:100FA00000B93FE005EB04108068B0421BD805EBA8
:100FB00004108068301A05EB04114968884230D368
:100FC00005EB0410C06860B3204800682049086041
:100FD00005EB0410866005EB0412106805EB0412A3
:100FE000D168884722E005EB04108068C0F1FF302B
:100FF000304405EB04114968884212D305EB041014
:10100000C06870B1114800681149086005EB041010
:10101000866005EB0412106805EB0412D16888475E
:1010200004E000BF601CC4B2072CB6DB09E008482E
:10103000006806490968884203D9044800680449E1
:101040000860012070BD0000341E0020601F0020D9
:10105000641F002070B5044626460CB9002070BD00
:101060000025072322460621284629F077F801208B
:10107000F5E770B5044626460CB9002070BD012581
:10108000072322460621284629F068F80120F5E7C3
:1010900070B505460C460CB1642D01DD002070BD15
:1010A000208840F2E951884203D02088491C8842B8
:1010B00001D1606808B90020F1E7207A012822D028
:1010C000022841D1208840F2EA5188420DD16A1E9F
:1010D000C2EB021202EB82021D4B03EB82014FF4C2
:1010E0009672606830F02EF90CE06A1EC2EB0212B4
:1010F00002EB8202174B03EB82014FF49672606899
:1011000030F020F921E0208840F2EA5188420DD1E8
:101110006A1EC2EB021202EB82020D4B03EB82014C
:101120004FF49672606830F083F80CE06A1EC2EBF0
:10113000021202EB8202074B03EB82014FF496721C
:10114000606830F075F800E000BF00BF0120A6E73E
:1011500010980200E022020070B505462E460DB937
:10116000002070BD0024C4EBC4001B4908448079F2
:10117000C0F3011068BB204617F0FCFB48BB0121FF
:10118000204629F093F8B72004EB4401134A02F8F3
:1011900021002E2004EB440102EB8101487004EB96
:1011A0004400114601EB80000472012004EB44016D
:1011B00002EB8101488004EB440002EB8001084807
:1011C000006820F09BFF322021F0DCFB05A035F009
:1011D000D5F80120C5E700008C8203202888032071
:1011E000241E0020506F7765722044697361626C21
:1011F00065204D6573736167652053656E640D0AE4
:101200000000000070B505462E460DB9002070BDE7
:101210000124C4EBC4001B4908448079C0F30110C9
:1012200068BB204617F0A6FB48BB0121204629F0E9
:101230003DF8B72004EB4401134A02F821002E20A8
:1012400004EB440102EB8101487004EB44001146B9
:1012500001EB80000472012004EB440102EB8101E8
:10126000488004EB440002EB80010848006820F04D
:1012700045FF322021F086FB05A035F07FF80120E4
:10128000C5E700008C82032040880320241E002034
:10129000506F7765722044697361626C65204D659B
:1012A00073736167652053656E640D0A000000006A
:1012B000F0B589B00646374601A801F057FF01A8EE
:1012C0000FC805AC0FC416B9002009B0F0BD00244A
:1012D000204617F05DFB00287ED1FEA035F04EF8C9
:1012E000204617F0A9FC0A21B0FBF1F5204617F0C3
:1012F00067FD01280CD10F21204629F077F8FBA0CB
:1013000035F03CF80221204628F0DEFF0020DCE723
:10131000B5F57A7F73D904EB840000EBC400F6497D
:101320000844B0F80B00A8426BD804EB840000EB33
:10133000C4000844B0F80B007321484305EBC50115
:1013400001EB0511B0EB810F59D24FF47A7021F007
:1013500019FB204617F070FC0A21B0FBF1F504EBF5
:10136000840000EBC400E4490844B0F80B0073218A
:10137000484305EBC50101EB0511B0EB810F15D218
:1013800004EB840000EBC400DB490844B0F80B20F8
:101390002946DAA034F0F2FF1E21204629F026F873
:1013A0000221204628F090FF00208EE7732068433A
:1013B00004EB840101EBC401CF4A1144B1F80B10D6
:1013C00001EBC10202EB0111B0EB810FBCD204EBC7
:1013D000840000EBC40000E004E2C7490844B0F810
:1013E0000B202946C5A034F0C9FF0221204628F071
:1013F0006BFF1E21204628F0F9FF002065E769E019
:10140000FFE77320684304EB840101EBC401BA4A8F
:101410001144B1F80B1001EBC10202EB0111B0EB6A
:10142000810F57D24FF47A7021F0ACFA204617F0B2
:1014300003FC0A21B0FBF1F57320684304EB84013F
:1014400001EBC401AC4A1144B1F80B1001EBC1022D
:1014500002EB0111B0EB810F15D204EB840000EB1D
:10146000C400A5490844B0F80B202946A3A034F0D5
:1014700085FF0221204628F027FF1E21204628F064
:10148000B5FF002021E704EB840000EBC4009A497B
:101490000844B0F80B007321484305EBC50101EB8C
:1014A0000511B0EB810F15D204EB840000EBC400F2
:1014B00091490844B0F80B20294690A034F05EFF13
:1014C0001E21204628F092FF0221204628F0FCFE33
:1014D0000020FAE6BDF81D00A8420DD229468FA0D3
:1014E00034F04CFF0221204628F0EEFE1E2120465B
:1014F00028F07CFF0020E8E68BA034F03FFF4FF49B
:10150000FA7021F03FFA32208E4901EB84014880C5
:1015100004EB840000EBC40077490844B0F80B00EA
:101520003238884921F82400B72004EB4401864A68
:1015300002F821002D2004EB440102EB81014870E8
:1015400004EB4400114601EB800004727D4800EB7F
:10155000840004EB440102EB8101486004EB440089
:1015600002EB80017948006820F0C8FD0A2021F0D4
:1015700009FA47F23052102120460AF0E6FF0BE14B
:1015800004EB440000EBC40071490844018804EBFB
:10159000840000EBC400584A1044B0F80B00C8386F
:1015A000814203DAFA2021F0EDF95CE004EB44001B
:1015B00000EBC40066490844018804EB840000EB9A
:1015C000C4004D4A1044B0F80B00C830814249DDD8
:1015D000B72004EB44015C4A02F821002E2004EB02
:1015E000440102EB8101487004EB4400114601EB19
:1015F00080000472012004EB440102EB8101488069
:1016000004EB440002EB80015048006820F076FDB6
:101610004FF4FA6021F0B6F9B72004EB44014A4ACE
:1016200002F821002D2004EB440102EB81014870F7
:1016300004EB4400114601EB80000472414800EBCA
:10164000840004EB440102EB8101486004EB440098
:1016500002EB80013D48006820F050FD0A2021F097
:1016600091F900E099E047F23052102120460AF04B
:101670005BFF172870D1B72004EB4401324A02F80F
:1016800021002E2004EB440102EB81014870002070
:1016900004EB440102EB8101488004EB4400114655
:1016A00001EB8000047204EB440002EB8001274848
:1016B000006820F023FD4FF47A7021F063F90221D5
:1016C00004EB8400C0EB8410224A02EB40008171DD
:1016D000022042E043686172676520526561647967
:1016E00020436865636B0D0A00000000B5E7B3D8BE
:1016F000B7B4BDD30D0A000056820320766F6C3A52
:1017000025642C4261747465727950726573656EDC
:1017100074566F6C3A25640D0A000000766F6C3ABF
:1017200025640D0A0000000043686172676520525D
:101730006561647920436865636B20446F6E650D55
:101740000A0000008C13002098870320241E00202C
:101750008A850320688403201EE004EB8401C1EB2A
:10176000841102EB41014870322120460FF0B8FF8E
:1017700004EB440000EBC4001B4A104401881BA08A
:1017800034F0FCFD1721204628F030FE02212046CF
:1017900028F09AFD002098E5F2E600BF204601F00F
:1017A00067FB01280AD1164800EB4400008804EBCF
:1017B000840101EBC401134A1144C88020460BF098
:1017C000FFF90121204628F001FE01230722042110
:1017D000204628F0D1FB0121204628F075FD0AA003
:1017E00034F0CCFD012070E58A85032031313131A0
:1017F0002020766F6C203D2025640D0A000000003B
:10180000541300205682032043686172676572207A
:10181000526561647920446F6E650D0A0000000016
:10182000F0B589B00646374601A801F09FFC01A833
:101830000FC805AC0FC416B9002009B0F0BD0124D3
:10184000204617F0A5F800287ED1FEA034F096FDC2
:10185000204617F0F1F90A21B0FBF1F5204617F008
:10186000AFFA01280CD10F21204628F0BFFDFBA0C4
:1018700034F084FD0221204628F026FD0020DCE71C
:10188000B5F57A7F73D904EB840000EBC400F64908
:101890000844B0F80B00A8426BD804EB840000EBBE
:1018A000C4000844B0F80B007321484305EBC501A0
:1018B00001EB0511B0EB810F59D24FF47A7021F092
:1018C00061F8204617F0B8F90A21B0FBF1F504EBF6
:1018D000840000EBC400E4490844B0F80B00732115
:1018E000484305EBC50101EB0511B0EB810F15D2A3
:1018F00004EB840000EBC400DB490844B0F80B2083
:101900002946DAA034F03AFD1E21204628F06EFD6B
:101910000221204628F0D8FC00208EE7732068437F
:1019200004EB840101EBC401CF4A1144B1F80B1060
:1019300001EBC10202EB0111B0EB810FBCD204EB51
:10194000840000EBC40000E004E2C7490844B0F89A
:101950000B202946C5A034F011FD0221204628F0B5
:10196000B3FC1E21204628F041FD002065E769E018
:10197000FFE77320684304EB840101EBC401BA4A1A
:101980001144B1F80B1001EBC10202EB0111B0EBF5
:10199000810F57D24FF47A7020F0F4FF204617F0F1
:1019A0004BF90A21B0FBF1F57320684304EB840185
:1019B00001EBC401AC4A1144B1F80B1001EBC102B8
:1019C00002EB0111B0EB810F15D204EB840000EBA8
:1019D000C400A5490844B0F80B202946A3A034F060
:1019E000CDFC0221204628F06FFC1E21204628F065
:1019F000FDFC002021E704EB840000EBC4009A49C1
:101A00000844B0F80B007321484305EBC50101EB16
:101A10000511B0EB810F15D204EB840000EBC4007C
:101A200091490844B0F80B20294690A034F0A6FC58
:101A30001E21204628F0DAFC0221204628F044FC32
:101A40000020FAE6BDF81D00A8420DD229468FA05D
:101A500034F094FC0221204628F036FC1E2120465A
:101A600028F0C4FC0020E8E68BA034F087FC4FF49B
:101A7000FA7020F087FF32208E4901EB8401488004
:101A800004EB840000EBC40077490844B0F80B0075
:101A90003238884921F82400B72004EB4401864AF3
:101AA00002F821002D2004EB440102EB8101487073
:101AB00004EB4400114601EB800004727D4800EB0A
:101AC000840004EB440102EB8101486004EB440014
:101AD00002EB80017948006820F010FB0A2020F01A
:101AE00051FF47F23052102120460AF02EFD0BE143
:101AF00004EB440000EBC40071490844018804EB86
:101B0000840000EBC400584A1044B0F80B00C838F9
:101B1000814203DAFA2020F035FF5CE004EB440058
:101B200000EBC40066490844018804EB840000EB24
:101B3000C4004D4A1044B0F80B00C830814249DD62
:101B4000B72004EB44015C4A02F821002E2004EB8C
:101B5000440102EB8101487004EB4400114601EBA3
:101B600080000472012004EB440102EB81014880F3
:101B700004EB440002EB80015048006820F0BEFAFC
:101B80004FF4FA6020F0FEFEB72004EB44014A4A0D
:101B900002F821002D2004EB440102EB8101487082
:101BA00004EB4400114601EB80000472414800EB55
:101BB000840004EB440102EB8101486004EB440023
:101BC00002EB80013D48006820F098FA0A2020F0DE
:101BD000D9FE00E099E047F23052102120460AF089
:101BE000A3FC172870D1B72004EB4401324A02F855
:101BF00021002E2004EB440102EB810148700020FB
:101C000004EB440102EB8101488004EB44001146DF
:101C100001EB8000047204EB440002EB80012748D2
:101C2000006820F06BFA4FF47A7020F0ABFE0221CE
:101C300004EB8400C0EB8410224A02EB4000817167
:101C4000022042E0436861726765205265616479F1
:101C500020436865636B0D0A00000000B5E7B3D848
:101C6000B7B4BDD30D0A000056820320766F6C3ADC
:101C700025642C4261747465727950726573656E67
:101C800074566F6C3A25640D0A000000766F6C3A4A
:101C900025640D0A000000004368617267652052E8
:101CA0006561647920436865636B20446F6E650DE0
:101CB0000A0000008C130020B0870320241E00209F
:101CC0008A850320688403201EE004EB8401C1EBB5
:101CD000841102EB41014870322120460FF000FDD3
:101CE00004EB440000EBC4001B4A104401881BA015
:101CF00034F044FB1721204628F078FB02212046CF
:101D000028F0E2FA002098E5F2E600BF204601F054
:101D1000AFF801280AD1164800EB4400008804EB14
:101D2000840101EBC401134A1144C88020460AF023
:101D300047FF0121204628F049FB01230722042107
:101D4000204628F019F90121204628F0BDFA0AA002
:101D500034F014FB012070E58A85032031313131E4
:101D60002020766F6C203D2025640D0A00000000C5
:101D70005413002056820320436861726765722005
:101D8000526561647920446F6E650D0A00000000A1
:101D900070B505460C4614B1B5F57A7F01DD00201B
:101DA00070BD208840F2EC41884201D1606808B9DA
:101DB0000020F5E7207A01280CD0022815D16A1EF0
:101DC00059235A4302F5743190311A4660682FF056
:101DD000B9FA0BE06A1E59235A4302F57431903167
:101DE0001A4660682FF024FA00E000BF00BF01200F
:101DF000D6E700002DE9F0418AB005462F461DB90F
:101E000000200AB0BDE8F08101F018F880460024F7
:101E1000684601F0ABF99DE80F0004AE0FC62046FE
:101E200016F09EFD02287DD1F64830F82400BDF85A
:101E3000191088423FDD022104EB8400C0EB8410BE
:101E4000F14A02EB40004172022004EB8401C1EB35
:101E5000841102EB410148702921204628F0C6FA7E
:101E6000B72004EB4401E94A02F821000222E8A16C
:101E700020461FF0F7F9242004EB4401E34A02EB6B
:101E80008101487004EB4400114601EB80000472AC
:101E900004EB440002EB8001404620F02FF90A20B9
:101EA00020F070FD0021204628F03CF8D9A034F045
:101EB00065FA0020A5E7D34800EB84004088BDF810
:101EC0001B10884205DDBDF81B00CE4901EB8401E3
:101ED0004880B72004EB4401D44A02F821002D20A9
:101EE00004EB440102EB8101487004EB440011460D
:101EF00001EB80000472C34800EB840004EB440152
:101F000002EB8101486004EB440002EB8001C84809
:101F1000006820F0F3F80A2020F034FD204616F087
:101F200045FD00E04AE0012800D16AE720460BF0B9
:101F30002BF90121204628F049FA01230722042128
:101F4000204628F019F804EB8402C2EB8412AE4B51
:101F500003EB42021C3204EB8403C3EB8413DFF86F
:101F6000A8C20CEB4303D11A04EB8402C2EB841227
:101F7000634603EB4200FEF70CFA0121204628F0ED
:101F8000B1F9B72004EB4401A04A02F82100252052
:101F900004EB440102EB8101487004EB440011465C
:101FA00001EB8000047204EB440002EB8001404628
:101FB00020F0A4F80A2020F0E5FCFDE004EB84000A
:101FC0009C4908444088C0F57A6008A901EB840167
:101FD000488004EB840000EBC40097490844408823
:101FE000C0F57A6086B208A800EB84004088B04251
:101FF00003DD08A800EB8400468004EB84008D49D3
:102000000844008808A921F8240008A830F8240012
:102010008A4921F8240008A800EB8400408801EBDD
:1020200084014880854800EB84004088BDF81B107F
:10203000884205DDBDF81B00804901EB8401488022
:102040007E4830F82400BDF81910884205DDBDF83F
:1020500019007A4921F824002DE0784830F824004E
:10206000BDF81D10884226DA744830F8241074A098
:1020700034F084F9714830F82400002810DC204640
:1020800000F0F6FE012805D1BDF81D006B4921F8CE
:10209000240010E04FF4FA60684921F824000AE0B7
:1020A000BDF81D00654921F82400084630F82410C9
:1020B00067A034F063F9204616F078FC012829D196
:1020C000B72004EB4401594A02F821002D2004EB0B
:1020D000440102EB8101487004EB4400114601EB1E
:1020E00080000472554800EB840004EB440102EBCD
:1020F0008101486004EB440002EB80014C48006819
:102100001FF0FCFF142020F03DFC20460BF03CF8B3
:10211000012076E6494800EB84004288474830F8C1
:10212000241003232046FEF72FFE0123072204215B
:10213000204627F021FF04EB8402C2EB8412324BCD
:1021400003EB42021C3204EB8403C3EB8413DFF87D
:10215000B8C00CEB4303D11A04EB8402C2EB841227
:10216000634603EB4200FEF714F90121204628F0F4
:10217000B9F8B72004EB4401244A02F821002520D5
:1021800004EB440102EB8101487004EB440011466A
:1021900001EB8000047204EB440002EB8001404636
:1021A0001FF0ACFF0421204627F034FE0A2020F067
:1021B000E9FB2BA034F0E2F820460AF0E5FF01210C
:1021C000204628F003F920460BF01AF820F046FCD0
:1021D00004EB8401C1EB84110B4A02EB4101C1F80D
:1021E000220004EB8401C1EB841102EB410101F1F7
:1021F0002A000BF031F80021204627F0A1FE012033
:10220000FFE500008413002068840320E08703209A
:102210004634000044656D616E6420566F6C205436
:102220006F6F204C617267650D0A0000C88703203C
:10223000241E002070820320568203208C1300206D
:102240004141414D494E4D494E2C25780D0A000023
:102250004141414D494E4D494E322C25780D0A00E1
:1022600043686172676520426567696E0D0A000008
:102270002DE9F0418AB005462F461DB900200AB06D
:10228000BDE8F08100F0DAFD80460124684600F0E8
:102290006DFF9DE80F0004AE0FC6204616F060FBF0
:1022A00002287DD1F64830F82400BDF81910884284
:1022B0003FDD022104EB8400C0EB8410F14A02EB05
:1022C00040004172022004EB8401C1EB841102EB57
:1022D000410148702921204628F088F8B72004EBF6
:1022E0004401E94A02F82100242004EB440102EBF6
:1022F000810148700322E5A120461EF0B3FF04EBE4
:102300004400E14901EB8000047204EB44000A46FA
:1023100002EB800140461FF0F1FE0A2020F032FB64
:102320000021204627F0FEFDD9A034F027F8002038
:10233000A5E7D34800EB84004088BDF81B10884215
:1023400005DDBDF81B00CE4901EB84014880B720B4
:1023500004EB4401D44A02F821002D2004EB44018F
:1023600002EB8101487004EB4400114601EB800050
:102370000472C34800EB840004EB440102EB8101CA
:10238000486004EB440002EB8001C84800681FF07D
:10239000B5FE0A2020F0F6FA204616F007FB00E012
:1023A0004AE0012800D16AE720460AF0EDFE01214B
:1023B000204628F00BF8012307220421204627F0AD
:1023C000DBFD04EB8402C2EB8412AE4B03EB420252
:1023D0001C3204EB8403C3EB8413DFF8A8C20CEBBC
:1023E0004303D11A04EB8402C2EB8412634603EB6D
:1023F0004200FDF7CEFF0121204627F073FFB720F2
:1024000004EB4401A04A02F82100252004EB44011A
:1024100002EB8101487004EB4400114601EB80009F
:10242000047204EB440002EB800140461FF066FE9C
:102430000A2020F0A7FAFDE004EB84009C49084440
:102440004088C0F57A6008A901EB8401488004EB5C
:10245000840000EBC400974908444088C0F57A60C6
:1024600086B208A800EB84004088B04203DD08A8CB
:1024700000EB8400468004EB84008D49084400880A
:1024800008A921F8240008A830F824008A4921F876
:10249000240008A800EB8400408801EB84014880F8
:1024A000854800EB84004088BDF81B10884205DD9C
:1024B000BDF81B00804901EB840148807E4830F85C
:1024C0002400BDF81910884205DDBDF819007A49CD
:1024D00021F824002DE0784830F82400BDF81D10C4
:1024E000884226DA744830F8241074A033F046FF8E
:1024F000714830F82400002810DC204600F0B8FCB9
:10250000012805D1BDF81D006B4921F8240010E019
:102510004FF4FA60684921F824000AE0BDF81D0074
:10252000654921F82400084630F8241067A033F0EC
:1025300025FF204616F03AFA012829D1B72004EBEE
:102540004401594A02F821002D2004EB440102EB1A
:102550008101487004EB4400114601EB80000472D5
:10256000554800EB840004EB440102EB8101486014
:1025700004EB440002EB80014C4800681FF0BEFDF4
:10258000142020F0FFF920460AF0FEFD012076E637
:10259000494800EB84004288474830F82410032360
:1025A0002046FEF7F1FB012307220421204627F0F5
:1025B000E3FC04EB8402C2EB8412324B03EB4202D5
:1025C0001C3204EB8403C3EB8413DFF8B8C00CEBBC
:1025D0004303D11A04EB8402C2EB8412634603EB7B
:1025E0004200FDF7D6FE0121204627F07BFEB720F2
:1025F00004EB4401244A02F82100252004EB4401A5
:1026000002EB8101487004EB4400114601EB8000AD
:10261000047204EB440002EB800140461FF06EFDA3
:102620000421204627F0F6FB0A2020F0ABF92BA06E
:1026300033F0A4FE20460AF0A7FD0121204627F032
:10264000C5FE20460AF0DCFD20F008FA04EB840108
:10265000C1EB84110B4A02EB4101C1F8220004EBEB
:102660008401C1EB841102EB410101F12A000AF05F
:10267000F3FD0021204627F063FC0120FFE5000068
:102680008413002068840320108803204633300020
:1026900044656D616E6420566F6C20546F6F204CE2
:1026A000617267650D0A0000F8870320241E002070
:1026B00070820320568203208C1300204141414D3B
:1026C000494E4D494E2C25780D0A00004141414D9F
:1026D000494E4D494E322C25780D0A0043686172EF
:1026E000676520426567696E0D0A00000346012098
:1026F0007047000000200349C86048608860088275
:10270000012070471450032010B500240AE0204631
:102710000AF038FA20460AF062FA20460AF050FA27
:10272000601CC4B2022CF2DB10BD000010B53221D7
:102730000E481FF0F3FB0E4908600846006808B910
:1027400000BFFEE732210B481FF0E8FB0A49086092
:102750000846006808B900BFFEE7002011F00CFB36
:10276000012011F009FB012010BD0000D8820320D8
:102770007C130020A0830320801300202DE9F0416A
:10278000044600270F4E1CB1608808B1606810B97C
:102790000020BDE8F081012700250EE0607850B1EF
:1027A000607816F83510884205D1706818B16068F5
:1027B00071688847EDE7681CC5B2BD42EEDB0020BA
:1027C000E7E700004C8103082DE9F04104460027AB
:1027D0000F4E1CB1608808B1606810B90020BDE8D8
:1027E000F081012700250EE0607850B1607816F87E
:1027F0003510884205D1706818B1606871688847E3
:10280000EDE7681CC5B2BD42EEDB0020E7E7000043
:10281000548103082DE9FE4F04460E4616F00CF9CC
:10282000074600200290019014B1062E00DB17B974
:102830000020BDE8FE8FA57894F8038060782178A9
:1028400040EA012945F6A520814532D1E81CB04275
:1028500001D00020EDE7B8F1830F2AD1607921790A
:1028600040EA012AA07940064FEA106BE01D009073
:10287000BAF1000F17D1A81C215C681C205C41EA4A
:1028800000200190A81C205C00F07F0002903979A4
:102890009DF8080061F3DF100199884208D102A871
:1028A00011F09AFC04E05A465046009911F0A0FC41
:1028B00000BF0120BDE7000070B5044625460CB9F5
:1028C000002070BD1C210548FDF763FD00200AF0C3
:1028D00086F903A033F052FD0120F2E7688403205B
:1028E000456C656374726F6E6963204C6F636B2017
:1028F0004C6F636B65640D0A0000000070B5044600
:1029000025460CB9002070BD1C210548FDF741FD8E
:1029100001200AF064F903A033F030FD0120F2E752
:10292000DE840320456C656374726F6E6963204CAE
:102930006F636B204C6F636B65640D0A00000000D1
:1029400070B5044625460CB9002070BD00200AF081
:1029500019F900200AF043F902A033F00FFD01201D
:10296000F3E70000456C656374726F6E6963204C19
:102970006F636B20556E6C6F636B65640D0A0000AE
:1029800070B5044625460CB9002070BD01200AF040
:10299000F9F801200AF023F902A033F0EFFC01203E
:1029A000F3E70000456C656374726F6E6963204CD9
:1029B0006F636B20556E6C6F636B65640D0A00006E
:1029C00070B504460CB9002070BD208840F2064165
:1029D000884228D1012033F022FD207A022812D12A
:1029E0001BF052FE628830486168FDF7B9FC4FF475
:1029F00016722D492D4835F009F940F6A6610420DC
:102A00001BF028FE0AE04FF416722749274835F0DC
:102A1000C0F8628824496068FDF7A2FC002033F00A
:102A2000FEFC0120D0E7208840F2CE41884228D128
:102A3000012033F0F4FC207A022812D11BF024FE8E
:102A4000628819486168FDF78BFC4FF416721649CD
:102A5000174835F0DBF840F6A66104201BF0FAFDBC
:102A60000AE04FF416721049114835F092F8628866
:102A70000D496068FDF774FC002033F0D0FC0120A4
:102A8000A2E720884FF6FF71884207D0208826F001
:102A9000F9FA0546002D01DA002095E7A8B2214693
:102AA00022F0BCFD90E70000C86C032000000E0877
:102AB00000000C080148006870470000EC1300207B
:102AC00010B50446022C01DB002010BD6B206043D2
:102AD000044A104400F1530110220348FDF740FC62
:102AE0000148F2E70FFE0320830404200146022977
:102AF00001DB002070476B204843024A1044D0F8A5
:102B00000900F7E70FFE03200146022901DB002040
:102B100070470148405CFBE7661D002010B5044685
:102B2000022C01DB002010BD04EB8400054A02EBFF
:102B3000C00000F1180110220348FDF711FC024803
:102B4000F1E7000029BD032053D4032001460229E8
:102B500001DB002070470020FCE70000014602294D
:102B600001DB002070470148405CFBE7C8160020ED
:102B7000004870479455032001460A2901DD0020D2
:102B800070470148405CFBE763DB0320024609B164
:102B9000022A01DB00207047034800EB4200008856
:102BA00008800120F7E70000541300200048704718
:102BB0000558032010B50446244890F83D0048B15C
:102BC000224890F83D00052804D0204890F83D00A8
:102BD000092803D1204600F063F910BD1B4890F886
:102BE0003D00082803D12046FFF76AFFF5E71748A4
:102BF00090F83D00022803D12046FFF78FFFECE755
:102C0000124890F83D00012818D0104890F83D0077
:102C10000A2813D00D4890F83D0006280ED00B4826
:102C200090F83D00072809D0084890F83D00032897
:102C300004D0064890F83D00042803D1204600F057
:102C4000F5FACAE7204600F02BF9C6E7DC5203206C
:102C50000146022901DB0020704701EB4100C0EB77
:102C6000C110024A02EB8000401CF5E7DC31032072
:102C70000EB540F2E650ADF8000040F6B830ADF8C1
:102C800002000848019001208DF808006846FFF70F
:102C900097FE20B904A033F071FB00200EBD01485F
:102CA000FCE70000C4350320526561642063617253
:102CB00064776C20206572720000000010B588B047
:102CC000044614B9002008B010BD684600F04EFA62
:102CD0009DE80F00CDE90623CDE90401BDF81900F8
:102CE0002080BDF81D006080BDF81B00C0F57A6033
:102CF000A0804FF47A60E0800120E4E770B50646DA
:102D00000C46304615F060FE05460CB9002070BD3B
:102D1000B5F834022080A8694FF47A71B0FBF1F065
:102D20006080304600F0A4F8012801D108206060DE
:102D30000120ECE7014800787047000018190020D6
:102D400070B505460C46284615F03EFE06460CB109
:102D5000022D01DB002070BD05EB450000EBC50036
:102D6000114908440088208005EB450000EBC500B0
:102D700008444088C0F57A606080B6F83402A080CC
:102D8000284600F075F801280CD1284615F0F2FD10
:102D900010B90120A07101E00020A071A07940F0DD
:102DA000FC00A0710120D6E78A850320024609B104
:102DB000022A01DB0020704702EB8200C0EB821088
:102DC000034B03EB4000006908600120F3E70000BB
:102DD000688403200146022901DB00207047024875
:102DE00000EB0110FAE7000072520320014800686E
:102DF00070470000D41100200146022901DB0020A9
:102E0000704759204843014A1044F9E7765A032095
:102E10000146022901DB00207047C1EBC10000EB35
:102E20004000014A1044F7E7485203200048704729
:102E3000DC52032000487047E44F0320014800683B
:102E400070470000B4080020014800787047000077
:102E5000AC0800200146022901DB04207047C1EBC9
:102E6000C100024A105C00F00F00F7E77C850320E8
:102E70000146022901DB012070470148405CFBE765
:102E80001C120020054890F82000022803DC0348AB
:102E900090F8200070470220FCE70000DC5203207D
:102EA00010B50446022C01DB002010BDC4EB8410D9
:102EB000044A104400F1250110220348FDF750FA9E
:102EC0000148F2E757DF032006E20320014602290A
:102ED00001DB00207047C1EB8110024A10440068FA
:102EE000F8E7000057DF03200146022901DB00203C
:102EF00070470148405CFBE75319002070B5044659
:102F00000D46022C01DB002070BD04EB44014A4851
:102F100010F8210061287CD004EB4402464901EB03
:102F200082014A7804EB4403434911F823103039F5
:102F300001EB810102EB41013039C8B20AF009FF0F
:102F4000687104EB44023C4901EB8201CA7804EB4E
:102F50004403394901EB83018978303901EB810160
:102F600002EB41013039C8B20AF0F3FE287104EBDC
:102F70004402314901EB82014A7904EB44032E49B2
:102F800001EB83010979303901EB810102EB410149
:102F90003039C8B20AF0DDFEE87004EB440226497D
:102FA00001EB8201CA7904EB4403234901EB83015D
:102FB0008979303901EB810102EB41013039C8B226
:102FC0000AF0C7FEA87004EB44021B4901EB820122
:102FD0004A7A04EB4403184901EB8301097A30393A
:102FE00001EB810102EB41013039C8B20AF0B1FEB8
:102FF000687004EB4402104901EB8201CA7A04EBC9
:1030000044030D4901EB8301897A303901EB8101D9
:1030100000E007E002EB41013039C8B20AF099FE46
:10302000287006E0AA2028706870A870E8702871DF
:103030006871012068E70000FD5203200146024844
:1030400000EB011070470000BB68032001460A290D
:1030500001DD002070470148405CFBE759DB03209D
:1030600010B50446244890F83D0048B1224890F835
:103070003D00052804D0204890F83D00092803D1E0
:103080002046FFF723FF10BD1B4890F83D0008289D
:1030900003D12046FFF72AFDF5E7174890F83D00D9
:1030A000022803D12046FFF751FDECE7124890F8C3
:1030B0003D00012818D0104890F83D000A2813D090
:1030C0000D4890F83D0006280ED00B4890F83D00C2
:1030D000072809D0084890F83D00032804D0064886
:1030E00090F83D00042803D1204600F0A3F8CAE779
:1030F0002046FFF7EBFEC6E7DC5203201FB5002099
:1031000003904FF4BD60ADF800000120ADF802005F
:1031100003A8019001208DF808006846FFF750FCD5
:103120009DF80C00642813DD002003904FF4BD606F
:10313000ADF800000120ADF8020003A801900220C4
:103140008DF808006846FFF73BFC002004B010BD76
:103150009DF80C00FAE710B504462046FFF70CFD79
:10316000012800D110BD0020FCE7000010B5044686
:10317000102202492046FDF7F3F810BD6C850320AC
:103180000148006870470000AC11002000487047FB
:1031900023530320014800687047000014500320A7
:1031A0000146022901DB00207047C1EBC100024A41
:1031B00012F82000F8E70000C88903200148407D8C
:1031C0007047000058DB032001480078704700007A
:1031D00058DB03200148006870470000BC1600203F
:1031E0000146022901DB002070470148405CFBE7F3
:1031F000CA1600200146022901DB00207047592031
:103200004843024A1044407EF8E70000765A032003
:103210000146022901DB04207047C1EBC100024ACC
:10322000105C00F00F00F7E77C850320014600BF2B
:10323000002070470146022901DB00207047024848
:1032400050F82100FAE70000141A00200146022974
:1032500001DB002070470148405CFBE7241A002096
:103260000146022901DB3620704701EB8100C0EBEB
:103270008110034A02EB400090F87400F4E700006C
:10328000688403202DE9F14F2DED108B90B04FF0A5
:10329000000B00200F9082460E908046002681464B
:1032A00000272098C8B90E21002027F09FF831216F
:1032B00000200EF015FA0021084626F019FEF5A0B0
:1032C00033F05CF80322FBA100201DF0CBFF0020AF
:1032D00010B0BDEC108BBDE8F88F2098069000244C
:1032E00004EB8400C0EB8410F34901EB4000451C63
:1032F000204615F0A1FC42F21071884218D302203A
:10330000E87028701D21204627F070F831212046F2
:103310000EF0E6F9E9A033F031F80021204626F05E
:10332000E7FD0322EEA120461DF09CFF0020CFE721
:10333000204615F045FD012818D10220E8702870BC
:103340000F21204627F052F8312120460EF0C8F90F
:103350000021204626F0CCFD0322E2A120461DF0EC
:1033600081FFE1A033F00AF80020B1E7E1A033F0DB
:1033700005F84FF4FA60E64921F82400322001EB09
:1033800084014880B72004EB4401E24A02F821009E
:103390002D2004EB440102EB8101487004EB440052
:1033A000114601EB80000472D94800EB840004EB65
:1033B000440102EB8101486004EB440002EB800110
:1033C000D54800681EF09AFE64201FF0DBFA00204A
:1033D00004EB440101EBC401D04A114408804FF0D2
:1033E000C80B47F230521021204609F0AEF854E0E5
:1033F00047F230521021204609F096F8172810D1D4
:103400000F900220A87028701721204626F0EEFFAA
:103410000322C3A120461DF025FFC2A032F0AEFF5B
:1034200057E00BF101001FFA80FBBBF1CD0F01DD6E
:103430004FF0C80B0BEB8B004FF6FF7101EA400019
:10344000B34921F82400322001EB84014880B720E1
:1034500004EB4401AF4A02F821002D2004EB4401A3
:1034600002EB8101487004EB4400114601EB80003F
:103470000472A74800EB840004EB440102EB8101D5
:10348000486004EB440002EB8001A34800681EF092
:1034900035FE4FF4FA701FF075FA04EB440000EBB0
:1034A000C4009E4908440188994830F82400A0F5DA
:1034B000967081429CDD04EB440000EBC400974908
:1034C00008440188924830F8240000F59670814243
:1034D0008EDA00BF0F9817284ED0204615F0ACFBAF
:1034E00042F21071884237D30220A870287003225C
:1034F00090A120461DF0B6FE1121204626F076FF51
:103500008DA032F03BFFB72004EB4401814A02F862
:1035100021002E2004EB440102EB810148700020C1
:1035200004EB440102EB8101488004EB44001146A6
:1035300001EB8000047204EB440002EB800176484A
:1035400000681EF0DBFD0021204626F0D1FC322071
:103550001FF018FA0020BBE6204609F015FE0121F5
:10356000204626F033FF012307220421204626F0BF
:1035700003FD75A032F002FF0F9817287ED00BA92B
:103580002046FFF703FB02A8FFF7F0FD02A80FC8D3
:10359000CDE90923CDE90701BDF82C00B0F5FA6F9C
:1035A00005DC4FF4FA605A4921F8240010E0BDF818
:1035B0002C00BDF82510884205DCBDF82C005449CC
:1035C00021F8240004E041F28830514921F8240018
:1035D00032204F4901EB84014880B72004EB4401BD
:1035E0004C4A02F821002D2004EB440102EB81013A
:1035F000487004EB4400114601EB8000047244481B
:1036000000EB840004EB440102EB8101486004EB11
:10361000440002EB8001404800681EF06FFD64200A
:103620001FF0B0F93A4800EB84004288384830F87F
:10363000241048A032F0A2FE002004EB440101EB6C
:10364000C401364A1144088044F620621021204605
:1036500008F07BFF9EE044F620621021204608F02F
:1036600063FF172815D10F900220A870287003223D
:1036700044A120461DF0F6FD172100E01BE1204685
:1036800026F0B4FE27A032F079FE3F4832F076FEF5
:103690009EE07BE0494E534F4C5554494F4E4552A6
:1036A0005220706172616D6574657231206572724D
:1036B0000D0A000046313700688403204B312F4B40
:1036C000322042617474657220566F6C204C6172B6
:1036D0006765207468616E203330560D0A00000063
:1036E0004631380046313900B5E7B3D8B7B4BDD359
:1036F0000D0A0000496E73756C6174696F6E20432A
:103700006865636B20426567696E0D0A0000000002
:103710008C13002068870320241E00208A85032044
:10372000463230003230532054494D454F55540DE8
:103730000A0000004632310044434F5554204552A0
:1037400052310D0A000000006B314B32204F706582
:103750006E0D0A00424D5344656D616E64496E669C
:103760006F2E566F6C203D2025642C424D534465CE
:103770006D616E64496E666F2E437572203D202523
:10378000640D0A0046323200308F03084FF4FA709D
:103790001FF0F8F804EB440000EBC400FE490844B5
:1037A0000188FE4830F82400A0F5967081427FF72A
:1037B00052AF04EB440000EBC400F7490844018811
:1037C000F64830F8240000F596708142BFF643AF0A
:1037D00000BF0F9817286ED0204615F02DFA0A2149
:1037E000B0FBF1FA204615F0C1F90A21B0FBF1F067
:1037F0000E90204609F0F5FC4FF47A701FF0C2F8E5
:10380000204615F019FA0A21B0FBF1F8204615F010
:10381000ADF90A21B0FBF1F6204609F0D3FC4FF4D4
:103820007A701FF0AFF8204615F006FA0A21B0FBB7
:10383000F1F9204615F09AF90A21B0FBF1F720467C
:1038400009F0EBF9204609F0D9F94346CDE9019793
:1038500000965146D2480E9A32F090FD64200AFB41
:1038600000F10E98400000EBC002C2EB8010B1EBFB
:10387000400F0BD864200AFB00F00E994900C1EB01
:10388000011101EB4101B0EB410F15D20220A870EC
:1038900028700322C3A120461DF0E4FC0E2120461F
:1038A00026F0A4FD012304221946204626F064FBDD
:1038B000BDA032F063FDE0E0642E03D3A8F1C800A0
:1038C000B04215D20220A87028700322BBA1204666
:1038D0001DF0C8FC0E21204626F088FD012304229D
:1038E0001946204626F048FBB5A032F047FDC4E05B
:1038F000A9EB070101FB06F0FCF735FF41EC1B0BC0
:103900003846FCF730FF41EC1E0B3046FCF72BFF2E
:1039100041EC1F0B9FEDB00B53EC102BFCF742FE5C
:1039200053EC1E2BCDE900019DED000B51EC100B6B
:10393000FCF738FE41EC1D0BA8EB060101FB07F07C
:10394000FCF711FF53EC1D2BCDE902019DED020B9D
:1039500051EC100BFCF77FFD41EC1C0B53EC1B2BC7
:10396000FCF71AFE41EC1A0BA9EB07017143A8EB17
:10397000060202FB1710FCF7F6FE53EC1A2BCDE9FA
:1039800004019DED040B51EC100BFCF77DFE41ECA6
:10399000190B9FED930B53EC102BFCF703FE41EC3E
:1039A000180BFCF7EDFE0D90A9EB070101FB06F0EB
:1039B000FCF7D9FE41EC1C0B3846FCF7D4FE41EC79
:1039C0001E0BA8EB0600FCF7CEFE41EC1F0B9FED93
:1039D000860B53EC102BFCF7E5FD53EC1E2BCDE9C9
:1039E00004019DED040B51EC100BFCF7DBFD41ECE9
:1039F0001D0B53EC1C2BFCF7CFFD41EC1A0BA9EB74
:103A000007017143A8EB060202FB1710FCF7ABFE9F
:103A100041EC1B0B53EC1A2BFCF736FE41EC190B57
:103A20009FED6F0B53EC102BFCF7BCFD41EC180B1A
:103A3000FCF7A6FE0C906EA0DDE90C2132F09EFC96
:103A40004DF2D8610D98884202D30C98884214D266
:103A50000220A870287003226BA120461DF002FCF2
:103A60000E21204626F0C2FC0123042219462046DE
:103A700026F082FA65A032F081FCB72004EB440105
:103A8000674A02F821002E2004EB440102EB810179
:103A90004870012004EB440102EB8101488004EBF3
:103AA0004400114601EB8000047204EB440002EB79
:103AB00080015C4800681EF021FB32201EF062FF8E
:103AC0002046FFF7D5F960B9204609F079F80021C2
:103AD000204626F07BFC002307220421204626F006
:103AE0004BFA2046FFF7C4F901283BD141F2883256
:103AF0001021204608F029FD1EE041F288321021F5
:103B0000204608F011FD172813D1022028712870D3
:103B1000032245A120461DF0A5FB1521204626F0D5
:103B200065FC302120460DF0DBFD40A032F026FC84
:103B300009E064201EF026FF204615F07DF842F2D1
:103B400010718842D9D200BF204609F039F800210F
:103B5000204626F03BFC002307220421204626F0C5
:103B60000BFA03E04FF47A701EF00CFF00212046A0
:103B700026F0BEF92878022875D1B72004EB44015D
:103B8000274A02F821002E2004EB440102EB8101B8
:103B9000487000204EE000008A8503208C1300202E
:103BA000E08E030846323300BEF8D4B5BCECB2E276
:103BB000BBD8C2B7B9CAD5CF0D0A0000463234000F
:103BC000D5FDB8BAC4B8CFDFB6D4B5D8D7E8D6B526
:103BD000BADCD0A10D0A00005566035633F9234024
:103BE0000000000000F326415566035633F92540D6
:103BF0004A59205270203D2025642C526E203D20D1
:103C000025640D0A0000000046323500BEF8D4B528
:103C1000BCECB2E2B9CAD5CFA1A10D0A00000000E8
:103C200068870320241E00204632360031313133AC
:103C30000D0A000004EB440102EB8101488004EB13
:103C40004400114601EB8000047204EB440002EBD7
:103C50008001074800681EF051FA32201EF092FEE3
:103C6000002078E4FFE70120287000BF73E4000023
:103C7000241E00202DE9F14F2DED108B90B0002077
:103C80000F908246834680460026814600270C908E
:103C90002098C8B90E21012026F0A8FB312101206F
:103CA0000DF01EFD0021012026F022F9F5A032F0D2
:103CB00065FB0222FBA101201DF0D4FA002010B008
:103CC000BDEC108BBDE8F88F20980690012404EB22
:103CD0008400C0EB8410F44901EB4000451C2046F1
:103CE00014F0AAFF42F21071884218D30220E87043
:103CF00028701D21204626F079FB312120460DF049
:103D0000EFFCEAA032F03AFB0021204626F0F0F862
:103D10000222EFA120461DF0A5FA0020CFE72046A1
:103D200015F04EF8012818D10220E87028700F21F4
:103D3000204626F05BFB312120460DF0D1FC00210E
:103D4000204626F0D5F8E3A032F018FB0222E4A1C9
:103D500020461DF087FA0020B1E7E2A032F00EFB0A
:103D60004FF4FA60E64921F82400322001EB840187
:103D70004880B72004EB4401E24A02F821002D20DC
:103D800004EB440102EB8101487004EB440011464E
:103D900001EB80000472DA4800EB840004EB44017C
:103DA00002EB8101486004EB440002EB8001D6483D
:103DB00000681EF0A3F964201EF0E4FD002004EB6F
:103DC000440101EBC401D14A11440880C8200C9081
:103DD00047F230521021204608F0B7FB55E047F279
:103DE00030521021204608F09FFB172810D10F9069
:103DF0000220A87028701721204626F0F7FA022228
:103E0000C3A120461DF02EFAC2A032F0B7FA58E046
:103E10000C98401C80B20C900C98CD2801DDC82075
:103E20000C900C9800EB80004FF6FF7101EA400007
:103E3000B34921F82400322001EB84014880B720E7
:103E400004EB4401AF4A02F821002D2004EB4401A9
:103E500002EB8101487004EB4400114601EB800045
:103E60000472A74800EB840004EB440102EB8101DB
:103E7000486004EB440002EB8001A34800681EF098
:103E80003DF94FF4FA701EF07DFD04EB440000EBA9
:103E9000C4009E4908440188994830F82400A0F5E0
:103EA000967081429BDD04EB440000EBC40097490F
:103EB00008440188924830F8240000F59670814249
:103EC0008DDA00BF0F9817284ED0204614F0B4FEAC
:103ED00042F21071884237D30220A8702870112155
:103EE000204626F083FA8FA032F048FAB72004EB80
:103EF0004401844A02F821002E2004EB440102EB25
:103F000081014870002004EB440102EB81014880EC
:103F100004EB4400114601EB8000047204EB440002
:103F200002EB8001784800681EF0E8F80021204686
:103F300025F0DEFF03227FA120461DF093F93220F9
:103F40001EF020FD0020BAE6204609F01DF90121EF
:103F5000204626F03BFA012307220421204626F0C2
:103F60000BF875A032F00AFA0F9817287DD00BA92C
:103F70002046FEF70BFE02A8FFF7F8F802A80FC8CC
:103F8000CDE90923CDE90701BDF82C00B0F5FA6FA2
:103F900005DC4FF4FA605A4921F8240010E0BDF81E
:103FA0002C00BDF82510884205DCBDF82C005449D2
:103FB00021F8240004E041F28830514921F824001E
:103FC00032204F4901EB84014880B72004EB4401C3
:103FD0004C4A02F821002D2004EB440102EB810140
:103FE000487004EB4400114601EB80000472444821
:103FF00000EB840004EB440102EB8101486004EB18
:10400000440002EB8001404800681EF077F864200D
:104010001EF0B8FC3A4800EB84004288384830F87B
:10402000241048A032F0AAF9002004EB440101EB6F
:10403000C401364A1144088044F62062102120460B
:1040400008F083FA9EE044F620621021204608F032
:104050006BFA172815D10F900220A870287017212D
:10406000204626F0C3F92BA000E01BE132F086F9D0
:10407000404832F083F903223FA120461DF0F2F8B8
:104080009EE07BE0494E534F4C5554494F4E4552AC
:104090005220706172616D65746572312065727253
:1040A0000D0A000046360000688403204B312F4B78
:1040B000322042617474657220566F6C204C6172BC
:1040C0006765207468616E203330560D0A00000069
:1040D00046370000B5E7B3D8B7B4BDD30D0A00002A
:1040E00046380000496E73756C6174696F6E2043C9
:1040F0006865636B20426567696E0D0A0000000009
:104100008C13002080870320241E00208A85032032
:10411000463900003230532054494D454F55540D17
:104120000A00000044434F555420455252310D0AB5
:1041300000000000463130006B314B32204F70657B
:104140006E0D0A00424D5344656D616E64496E66A2
:104150006F2E566F6C203D2025642C424D534465D4
:104160006D616E64496E666F2E437572203D202529
:10417000640D0A00308F0308463131004FF4FA70A5
:104180001EF000FC04EB440000EBC400FE490844B0
:104190000188FE4830F82400A0F5967081427FF730
:1041A00052AF04EB440000EBC400F7490844018817
:1041B000F64830F8240000F596708142BFF643AF10
:1041C00000BF0F9817286DD0204614F035FD0A2146
:1041D000B0FBF1FA204614F0C9FC0A21B0FBF1FB58
:1041E000204608F0FEFF4FF47A701EF0CBFB20460D
:1041F00014F022FD0A21B0FBF1F8204614F0B6FCC1
:104200000A21B0FBF1F6204608F0DCFF4FF47A708B
:104210001EF0B8FB204614F00FFD0A21B0FBF1F9A7
:10422000204614F0A3FC0A21B0FBF1F7204608F069
:10423000F4FC204608F0E2FC43465A465146D44876
:10424000CDE90197009632F099F864200AFB00F05E
:104250004FEA4B0101EBC102C2EB8111B0EB410F00
:104260000BD864200AFB00F04FEA4B01C1EB0111AF
:1042700001EB4101B0EB410F15D20220A87028706C
:104280000322C4A120461CF0EDFF0E21204626F09B
:10429000ADF8012304221946204625F06DFEBEA08C
:1042A00032F06CF8E0E0642E03D3A8F1C800B0420D
:1042B00015D20220A87028700322BCA120461CF051
:1042C000D1FF0E21204626F091F801230422194641
:1042D000204625F051FEB6A032F050F8C4E0A9EB1C
:1042E000070101FB06F0FCF73EFA41EC1B0B3846D8
:1042F000FCF739FA41EC1E0B3046FCF734FA41EC7E
:104300001F0B9FEDB10B53EC102BFCF74BF953EC4B
:104310001E2BCDE900019DED000B51EC100BFCF7BD
:1043200041F941EC1D0BA8EB060101FB07F0FCF77E
:104330001AFA53EC1D2BCDE902019DED020B51EC55
:10434000100BFCF788F841EC1C0B53EC1B2BFCF713
:1043500023F941EC1A0BA9EB07017143A8EB060204
:1043600002FB1710FCF7FFF953EC1A2BCDE90401FF
:104370009DED040B51EC100BFCF786F941EC190B89
:104380009FED930B53EC102BFCF70CF941EC180B41
:10439000FCF7F6F90E90A9EB070101FB06F0FCF71C
:1043A000E2F941EC1C0B3846FCF7DDF941EC1E0B41
:1043B000A8EB0600FCF7D7F941EC1F0B9FED860B2D
:1043C00053EC102BFCF7EEF853EC1E2BCDE9040157
:1043D0009DED040B51EC100BFCF7E4F841EC1D0BC8
:1043E00053EC1C2BFCF7D8F841EC1A0BA9EB070196
:1043F0007143A8EB060202FB1710FCF7B4F941EC7D
:104400001B0B53EC1A2BFCF73FF941EC190B9FEDFA
:10441000700B53EC102BFCF7C5F841EC180BFCF7B4
:10442000AFF90D906EA0DDE90D2131F0A7FF4DF23F
:10443000D8610E98884202D30D98884214D2022087
:10444000A870287003226CA120461CF00BFF0E21DF
:10445000204625F0CBFF012304221946204625F0F3
:104460008BFD66A031F08AFFB72004EB4401684A57
:1044700002F821002E2004EB440102EB8101487078
:10448000012004EB440102EB8101488004EB44006D
:10449000114601EB8000047204EB440002EB800142
:1044A0005C4800681DF02AFE32201EF06BFA2046A0
:1044B000FEF7DEFC60B9204608F082FB00212046B2
:1044C00025F084FF002307220421204625F054FD17
:1044D0002046FEF7CDFC01283BD141F28832102165
:1044E000204608F032F81EE041F2883210212046C2
:1044F00008F01AF8172813D1022028712870152106
:10450000204625F073FF302120460DF0E9F8032204
:1045100041A120461CF0A6FE40A031F02FFF09E08B
:1045200064201EF02FFA204614F086FB42F2107130
:104530008842D9D200BF204608F042FB0021204625
:1045400025F044FF002307220421204625F014FD16
:1045500003E04FF47A701EF015FA0021204625F092
:10456000C7FC2878022874D1B72004EB4401284AFC
:1045700002F821002E2004EB440102EB8101487077
:10458000002004EB44014DE08A8503208C130020B9
:10459000E08E030846313200BEF8D4B5BCECB2E27E
:1045A000BBD8C2B7B9CAD5CF0D0A00004631330017
:1045B000D5FDB8BAC4B8CFDFB6D4B5D8D7E8D6B52C
:1045C000BADCD0A10D0A00005566035633F923402A
:1045D0000000000000F326415566035633F92540DC
:1045E0004A59205270203D2025642C526E203D20D7
:1045F00025640D0A0000000046313400BEF8D4B531
:10460000BCECB2E2B9CAD5CFA1A10D0A00000000EE
:1046100080870320241E002046313500313131339C
:104620000D0A000002EB8101488004EB44001146B2
:1046300001EB8000047204EB440002EB80010748A8
:1046400000681DF05BFD32201EF09CF900207AE42A
:10465000FFE70120287000BF75E40000241E002041
:10466000F0B58BB00446002600200990022C01DB37
:104670000BB0F0BD04EB8400C0EB8410FE4901EBED
:10468000400000F11005204614F060FA01284FD1D7
:10469000204614F02BF920B9204614F035F90028F3
:1046A0003FD0204614F05CF9012804D0204614F0D5
:1046B00057F9032835D1204608F082FA0021204618
:1046C00025F084FE002307220421204625F054FC17
:1046D000204608F057FAA87820F00C00001DA870BA
:1046E00004EB8400C0EB8410E34911F8100040F0A3
:1046F000020004EB8401C1EB8411DF4A02F81100CF
:104700000322DEA120461CF0ADFD0521204602F06B
:104710009BFA9DF8240040F004000990D8A031F0E5
:104720002DFE012305220421204625F025FC05E06D
:10473000002305220421204625F01EFC204614F00B
:10474000CBF9012838D1204614F0D0F818B920460A
:1047500014F0DAF848B3A87820F00300401CA870E1
:1047600004EB8400C0EB8410C34911F8100040F042
:10477000020004EB8401C1EB8411BF4A02F811006E
:104780000322C1A120461CF06DFD0321204625F027
:104790002DFE0821204602F057FA9DF8240040F033
:1047A00004000990B9A031F0E9FD012304220021A1
:1047B000204625F0E1FB05E00023042219462046AF
:1047C00025F0DAFB204614F067F9012849D120468C
:1047D00014F0ECF801283DD1204614F095F8C8BB40
:1047E000204614F0BDF8012804D0204614F0B8F893
:1047F00003282FD1A87820F00C00001DA87004EB2E
:104800008400C0EB84109C4911F8100040F00200B5
:1048100004EB8401C1EB8411974A02F811000322D2
:104820009CA120461CF01EFD0D21204625F0DEFD3A
:104830001221204602F008FA9DF8240040F00400FE
:10484000099095A031F09AFD01231A461946204699
:1048500025F092FB002306220421204625F08CFB44
:104860000BE0002301221146204625F085FB0123A1
:1048700006220421204625F07FFB204614F066F92D
:10488000012835D1002304220121204625F074FBA4
:10489000002305220121204625F06EFB0023022281
:1048A0001146204625F068FB002302220321204602
:1048B00025F062FB002305220321204625F05CFB46
:1048C000002306220321204625F056FB0023072261
:1048D0000321204625F050FB002307220221204619
:1048E00025F04AFB002305220221204625F044FB47
:1048F00001A8FEF73BFC01A80FC805AE0FC604EBEC
:10490000440000EBC40066490844068841F6B050F4
:1049100086423DD2BDF81800C830B04238D2204699
:1049200013F0E4FF18B9204613F0EEFF50B3E87817
:1049300020F00C00001DE87004EB8400C0EB841034
:104940004D4911F8100040F0020004EB8401C1EB66
:104950008411494A02F81100032252A120461CF09A
:1049600081FC1B21204602F06FF91821204625F01A
:104970003DFD9DF8240040F00400099031464AA016
:1049800031F0FCFC012307220321204625F0F4FA34
:10499000204614F051F90A21B0FBF1F604EB840033
:1049A00000EBC40042490844C08800F51670B042CC
:1049B0004AD204EB840000EBC4000844C08840F6EF
:1049C000B831884240DB204613F090FF18B92046EA
:1049D00013F09AFF88B3E87820F00C00001DE8700F
:1049E00004EB8400C0EB8410234911F8100040F060
:1049F000020004EB8401C1EB84111F4A02F811008C
:104A000003222CA120461CF02DFC1B21204602F085
:104A10001BF91821204625F0E9FC9DF8240040F000
:104A20000400099004EB840000EBC4002049084412
:104A3000C288314620A031F0A1FC012307220321C6
:104A4000204625F099FA09E0BDF81800B04205D3D8
:104A5000002307220321204625F08EFA14F0A0F847
:104A600087B2BDF81400B84264DA41F27070874230
:104A700060DA204626E000006884032045313800D3
:104A800035310D0A000000004531370035320D0A7E
:104A9000000000004531360035330D0A00000000EB
:104AA0008A8503204531350035352C25780D0A00DF
:104AB000568203204531340035362C25782C257854
:104AC0000D0A000013F012FF18B9204613F01CFF66
:104AD00048B3E87820F00300401CE87004EB840041
:104AE000C0EB8410FB4911F8100040F0020004EB09
:104AF0008401C1EB8411F74A02F811000322F6A1E8
:104B000020461CF0AFFB0F21204602F09DF80A2141
:104B1000204625F06BFC9DF8240040F0040009902D
:104B2000EEA031F02BFC012303220221204625F0C8
:104B300023FA05E0002303220221204625F01CFA77
:104B4000BDF81600B8423CDD41F27070874238DA99
:104B5000204613F0CBFE18B9204613F0D5FE48B31B
:104B6000E87820F00300401CE87004EB8400C0EB00
:104B70008410D84911F8100040F0020004EB8401C1
:104B8000C1EB8411D34A02F811000322D5A12046BB
:104B90001CF068FB0F21204602F056F80A2120463F
:104BA00025F024FC9DF8240040F004000990CBA0DF
:104BB00031F0E4FB012304220221204625F0DCF938
:104BC00005E0002304220221204625F0D5F9C4EB9C
:104BD000C400C549085CC00900285BD0204613F01A
:104BE000BFFE012804D0204613F0BAFE032851D19D
:104BF000002013F07BFE18B9002013F085FEF8B1F9
:104C0000E87820F00300401CE870B248007840F0DB
:104C10000200B04908700322B4A100201CF022FB5E
:104C20001421002002F010F81121002025F0DEFBF5
:104C30009DF8240040F004000990ADA031F09EFBE7
:104C4000012013F053FE18B9012013F05DFE08B3E4
:104C5000E87820F00300401CE8709E4890F8760049
:104C600040F002009B4981F876000322A2A10120B6
:104C70001CF0F8FA1421012001F0E6FF11210120B7
:104C800025F0B4FB9DF8240040F00400099098A0A2
:104C900031F074FB1DF0E2FE984941F824002046F3
:104CA00013F05EFE012804D0204613F059FE0328BD
:104CB00075D1204613F01AFE20B9204613F024FEC9
:104CC00000287FD08E4850F8241040F245206043E1
:104CD0008C4A02EB40008069814262D1874850F8DB
:104CE0002400894951F8241088420DD3834850F894
:104CF0002400854951F82410401A8449884201D380
:104D0000012010E000200EE07C4850F824007E498D
:104D100051F82410C1F1FF3108447C49884201D385
:104D2000012000E00020C8B3744850F82400764900
:104D300041F8240040F245206043724901EB4000F5
:104D400080696F4941F82400E87820F00300401C96
:104D5000E87004EB8400C0EB84105E4911F8100089
:104D600040F0020004EB8401C1EB8411594A02F8BF
:104D70001100032266A120461CF074FA2D21204662
:104D800001F062FF2921204625F030FB9DF8240028
:104D900040F0040009905FA031F0F0FA33E022E027
:104DA00010E0564850F82400574941F8240040F2DA
:104DB00045206043534901EB40008069504941F868
:104DC000240020E04D4850F824004F4941F82400C9
:104DD00040F2452060434B4901EB4000806948495F
:104DE00041F824000FE0454850F82400464941F8B6
:104DF000240040F245206043424901EB40008069B5
:104E00003F4941F8240000200A900AAA294620467A
:104E1000FDF76CFC012811D19DF82800042807D16A
:104E200003223FA120461CF01DFA3EA031F0A6FA55
:104E30009DF824009DF8281008430990204613F09F
:104E4000B5FD012845D1204613F08AFD012804D084
:104E5000204613F085FD0328F4D11DF0FFFD3349F2
:104E600041F8240004EB440000EBC400304908443E
:104E7000418804EB84002F4A10444088C0F57A60D2
:104E8000643081427DD9294850F824002A4951F8DC
:104E9000241088420ED3254850F82400264951F8A2
:104EA0002410401A43F69821884201D3012046E09D
:104EB000002044E01D4850F824001F4951F82410F8
:104EC000C1F1FF31084443F69821884236D30120CE
:104ED00035E0FCE0688403204531330061633537F9
:104EE0000D0A0000453132007C8503204536330031
:104EF000646335370D0A000045363400C8130020BE
:104F0000C0130020A75F0320D0130020C0D40100ED
:104F100045363500706F77657235370D0A00000031
:104F20004531310035380D0A00000000A013002083
:104F30008A85032070820320A81300200020C8B3B4
:104F4000204613F0D3FC18B9204613F0DDFC88B3DB
:104F5000E87820F00300401CE87004EB8400C0EB0C
:104F60008410D64911F8100040F0020004EB8401CF
:104F7000C1EB8411D14A02F811000322D0A12046CE
:104F800000E018E01CF06EF91D21204601F05CFEE7
:104F90001A21204625F02AFA9DF8240040F004004A
:104FA0000990012306220321204624F0E5FFC5A035
:104FB00031F0E4F905E0C54850F82400C44941F84F
:104FC00024001DF04BFDC34941F8240004EB4400CC
:104FD00000EBC400C0490844018804EB8400BF4AC8
:104FE0001044008800F59670814269DDB94850F898
:104FF0002400BB4951F8241088420ED3B54850F81C
:105000002400B74951F82410401A42F21071884226
:1050100001D3012011E000200FE0AE4850F8240039
:10502000AF4951F82410C1F1FF31084442F2107128
:10503000884201D3012000E00020A8B3204613F0ED
:1050400055FC18B9204613F05FFC70B3E87820F0E7
:105050000C00001DE87004EB8400C0EB841097493D
:1050600011F8100040F0020004EB8401C1EB841140
:10507000924A02F8110002229AA120461CF0F2F88E
:105080001B21204601F0E0FD1821204625F0AEF955
:105090009DF8240040F00400099004EB84008F493F
:1050A00008440288314601E027E002E08EA031F09A
:1050B00065F9012307220321204624F05DFF1CE04F
:1050C000844850F82400864941F8240015E01DF07A
:1050D000C5FC7E4941F82400084650F824007C496C
:1050E00041F824001DF0BAFC7A4941F82400084632
:1050F00050F824007A4941F82400204613F08AFD34
:1051000030B9002307220421204624F035FF05E0B2
:10511000012307220421204624F02EFF022008F05C
:105120000DF890B3204613F0E1FB18B9204613F0B8
:10513000EBFB50B3A87820F00300401CA87004EBF0
:105140008400C0EB84105D4911F8100040F00200AB
:1051500004EB8401C1EB8411584A02F811000222C9
:1051600067A120461CF07EF82921204625F03EF953
:105170000921204601F068FD9DF8240040F004005C
:105180000990AFF2F86031F0F9F85E4890F8450008
:10519000F0BB204607F07EFE04EB84015A4A02EB86
:1051A0000111B1F84A1088420BD8204607F081FE61
:1051B00004EB8401544A02EB0111B1F84E1088420D
:1051C00028D9A87820F00300401CA87004EB8400C4
:1051D000C0EB8410394911F8100040F0020004EBD4
:1051E0008401C1EB8411354A02F81100022247A163
:1051F00020461CF037F80C21204625F0F7F8112145
:10520000204601F021FD9DF8240040F0040000E05C
:1052100000E00990204613F069FB18B9204613F00E
:1052200073FBC8B304EB8400C0EB8410234911F86E
:10523000100088B304EB8400C0EB841011F8102038
:10524000214633A031F09AF8B82004EB4401364AE5
:1052500002F82100232004EB440102EB8101487095
:10526000012004EB440102EB8101488009A804EB12
:10527000440102EB8101486004EB4400114601EB5C
:10528000800004724CB904EB440002EB8001274813
:1052900000681CF033FF09E00CE004EB4400224AF4
:1052A00002EB8001224800681CF028FF4FF47A705E
:1052B0001DF068FB00BFFFF7DBB900006884032026
:1052C000453130003537370D0A200000A01300208B
:1052D000A8130020B01300208A85032070820320C9
:1052E000B81300204539000035352C566F6C203D31
:1052F0002025642C42434C203D2025640D0A0000EB
:1053000045380000DC520320CAF102204537000076
:1053100047554E203D2025642C546F74616C4572B6
:10532000723A25780D0A0000588803207C1300206B
:105330008013002010B50446022C00DB10BD20466F
:1053400013F034FDE32809D1204613F0FFFB0128B8
:1053500023D10021204625F015F81EE0204613F049
:10536000F5FBD0B90121204625F00CF8204613F0BA
:10537000BDFA70B9204613F0C7FA50B920460EF0B6
:10538000FBFC0021204606F079FF204606F022FFB4
:1053900003E00121204624F0ABFD00BFCEE770B54D
:1053A0000546002007F0CAFE0446284613F094FB89
:1053B000A0420FD0012C09D1284607F0F4FE4FF48B
:1053C000FA701DF0DFFA284607F009FC214628464E
:1053D00024F0C8FF284607F00BFD04462146284666
:1053E00024F0B0FF70BD00002DE9F0410546002714
:1053F00015B90020BDE8F0812E7A022E01DB0020D5
:10540000F8E70D4800EB0617002410E017F8340009
:105410006978884209D107EBC400406828B107EBDE
:10542000C400416828468847E4E7601CC4B2022CE7
:10543000ECD30020DEE70000B085030810B501467C
:105440000B460BB9002010BD5A6810880A4C6080CA
:10545000508800EB80004FF6FF7404EA4000064CD1
:10546000A0802046007820F00F00401C2070002013
:10547000E0800120E7E700003007042010B5014676
:105480000B460BB9002010BD5A6814880B484485A0
:10549000508800EB80004FF6FF7404EA4004074890
:1054A000848590F8280020F00F00401C034C84F8FD
:1054B000280000240148C4850120E4E730070420C7
:1054C00010B501460A460AB9002010BD53680020F5
:1054D0000B4C6080A080508830B92046007820F0C6
:1054E0000F00801D207006E00548007820F00F00B6
:1054F000801C034C20700020014CE0800120E4E778
:105500003007042010B501460A460AB9002010BD34
:10551000536800240E4844858485508848B90C4857
:1055200090F8280020F00F00801D094C84F8280016
:1055300008E0074890F8280020F00F00801C044C79
:1055400084F8280000240248C4850120DFE7000019
:1055500030070420FEB506460D461446B6F57A7FA0
:1055600000DC0CB90020FEBD40F2EC40ADF80000BC
:1055700001948DF8085069463046FCF709FC01207B
:10558000F1E7FEB506460D461446642E00DC0CB964
:105590000020FEBD40F2EA50ADF8000001948DF805
:1055A000085069463046FBF773FD0120F1E7FEB570
:1055B00006460D461446642E00DC0CB90020FEBDE4
:1055C00040F2E950ADF8000001948DF808506946AA
:1055D0003046FBF75DFD0120F1E70000014609B907
:1055E000002070470A46064B114610691860107873
:1055F00000F0040010B1034B906918600120F0E73F
:105600006A13002072130020014609B90020704778
:105610000A46064B114610695860107800F00400E5
:1056200010B1034B906958600120F0E76A13002025
:10563000721300202DE9FC5F0446002000900190C9
:10564000FDF738FA82460CB1606810B90020BDE859
:10565000FC9F60780A287DD2DFE800F07C050B0C07
:10566000171824FEFDFC62681178607800F0B2FA29
:10567000A2E200BFFB48007808B10020E7E76268BB
:105680001178607800F0A6FA96E200BFF54800783D
:10569000012801D00020DAE762681178607800F014
:1056A00099FA89E2F04890F83D0002287CD1ED4853
:1056B00090F82C0048B1ED490868002110F08CFBEF
:1056C000012024F031FD0020C1E70020FDF754FA4D
:1056D00001280AD13A20E64908700B2048700020C2
:1056E000488050461CF00AFD7BE0FDF7C1FA804679
:1056F00098F80090B8F1000F01D10020A7E7002032
:1057000013F01AFA06463078717840EA0120B17831
:1057100040EA0140F17840EA0165D648B5FBF0F077
:1057200000F0FF0B584613F0E4FC8DF80000D14860
:10573000B5FBF0F100FB1150CF49B0FBF1F000F0E8
:10574000FF0B584613F0D5FC8DF80100CA48B5FB95
:10575000F0F100E02FE200FB115042F21071B0FBBB
:10576000F1F000F0FF0B584613F0C3FC8DF8020077
:1057700042F21070B5FBF0F100FB11506421B0FB58
:10578000F1F000F0FF0B584613F0B3FC8DF8030066
:105790006420B5FBF0F100FB115B584613F0A9FC47
:1057A0008DF80400002719E023E0012101EBC70177
:1057B00001EB0800082269460EF0E8F960B101210A
:1057C00000202FF089FC0121002001F021FA0121A5
:1057D00000201BF0E9FF03E0781CC7B24F45E4DB73
:1057E00000BFA2490868002110F0F6FA012024F059
:1057F0009BFC9D4890F83D0038B39B4890F83D00D5
:10580000052822D0984890F83D000A281DD09648D7
:1058100090F83D00092818D0934890F83D000128E1
:1058200013D0914890F83D0006280ED08E4890F88D
:105830003D00072809D08C4890F83D00032804D08B
:10584000894890F83D00042828D1864890F82C001B
:1058500068B102E06EE122E02BE184490868002192
:1058600010F0BAFA012024F05FFC0020EFE60020DF
:10587000FDF782F9012809D13A207D4908700B20F3
:1058800048700020488050461CF038FC7749086872
:10589000002110F0A1FA012024F046FC8CE17248AE
:1058A00090F83D0002287DD16E4890F82D0048B157
:1058B0006E490868002110F08FFA012024F034FCB2
:1058C0000020C4E60020FDF757F901280DD13A2049
:1058D000674908730B21664841730121C18100F1BA
:1058E0000C0150461CF00AFC79E0FDF7C1F9804636
:1058F00098F80090B8F1000F01D10020A7E6012030
:1059000013F01AF906463078717840EA0120B17830
:1059100040EA0140F17840EA01655648B5FBF0F0F5
:1059200000F0FF0B584613F0E4FB8DF800005148DF
:10593000B5FBF0F100FB11504F49B0FBF1F000F066
:10594000FF0B584613F0D5FB8DF801004A48B5FB14
:10595000F0F100FB115042F21071B0FBF1F000F0D9
:10596000FF0B584613F0C5FB8DF8020042F2107091
:10597000B5FBF0F100FB11506421B0FBF1F000F039
:10598000FF0B584613F0B5FB8DF803006420B5FB00
:10599000F0F100FB115B584613F0ABFB8DF80400EF
:1059A000002719E023E0012101EBC70101EB08000A
:1059B000082269460EF0EAF860B1012108462FF08E
:1059C0008BFB0121084601F023F9012108461BF059
:1059D000EBFE03E0781CC7B24F45E4DB00BF234970
:1059E0000868002110F0F8F9012024F09DFB1E4802
:1059F00090F83D0038B31C4890F83D00052822D0AF
:105A0000194890F83D000A281DD0174890F83D002D
:105A1000092818D0144890F83D00012813D01248E6
:105A200090F83D0006280ED00F4890F83D0007285A
:105A300009D00D4890F83D00032804D00A4890F89A
:105A40003D00042834D1074890F82D00B0B1074933
:105A50000868002110F0C0F9012024F065FB002047
:105A6000F5E50000E44F0320DC5203204C04002045
:105A7000E85C032000E1F50540420F000020FDF73F
:105A80007BF801280CD13A204D4908730B214C4872
:105A900041730121C18100F10C0150461CF02EFB25
:105AA00048490868002110F097F9012024F03CFBD8
:105AB00082E0454890F83D0002282BD0424890F8FB
:105AC0003D0038B3404890F83D000A2822D03E48B7
:105AD00090F83D0009281DD03B4890F83D0005286E
